:100000000C942A000C943C000C943C000C943C0092
:100010000C943C000C943C000C943C000C943C0070
:100020000C943C000C943C000C94DF010C943C00BC
:100030000C943C000C943C000C943C000C943C0050
:100040000C943C000C943C000C943C000C943C0040
:100050000C943C0011241FBECFE5D8E0DEBFCDBF1D
:1000600010E0A0E6B0E001C01D92A936B107E1F7AB
:100070000E942E020C949E020C940000813049F0E4
:10008000813028F0823039F0833041F406C06ABBF9
:10009000089567BB089564BB089561BB0895442328
:1000A000C9F1413009F06EC0813099F0813030F0F3
:1000B0008230D1F0833009F065C021C02AB381E0DD
:1000C00090E002C0880F991F6A95E2F7282B2ABB9F
:1000D000089527B381E090E002C0880F991F6A95C8
:1000E000E2F7282B27BB089524B381E090E002C0FB
:1000F000880F991F6A95E2F7282B24BB089521B336
:1001000081E090E002C0880F991F6A95E2F7282BE2
:1001100021BB0895813099F0813028F08230D9F0E8
:10012000833081F524C02AB381E090E002C0880FBB
:10013000991F6A95E2F7809582238ABB089527B3B9
:1001400081E090E002C0880F991F6A95E2F78095E0
:10015000822387BB089524B381E090E002C0880F1A
:10016000991F6A95E2F78095822384BB089521B395
:1001700081E090E002C0880F991F6A95E2F78095B0
:10018000822381BB0895813049F0813028F082308C
:1001900039F0833041F406C06BBB089567BB089506
:1001A00064BB089561BB08954423C9F1413009F04F
:1001B0006EC0813099F0813030F08230D1F08330E0
:1001C00009F065C021C02BB381E090E002C0880F28
:1001D000991F6A95E2F7282B2BBB089528B381E07D
:1001E00090E002C0880F991F6A95E2F7282B28BB80
:1001F000089525B381E090E002C0880F991F6A95A9
:10020000E2F7282B25BB089522B381E090E002C0DD
:10021000880F991F6A95E2F7282B22BB0895813039
:1002200099F0813028F08230D9F0833081F524C0F4
:100230002BB381E090E002C0880F991F6A95E2F726
:10024000809582238BBB089528B381E090E002C0A3
:10025000880F991F6A95E2F78095822388BB0895DD
:1002600025B381E090E002C0880F991F6A95E2F7FC
:100270008095822385BB089522B381E090E002C07F
:10028000880F991F6A95E2F78095822382BB0895B3
:10029000FB01813049F0813028F0823039F0833021
:1002A00051F407C089B303C086B301C083B3808310
:1002B000089580B380830895FA01813049F0813038
:1002C00028F0823039F08330C1F40EC089B303C006
:1002D00086B301C083B390E002C0959587956A9577
:1002E000E2F781708083089580B390E002C0959515
:1002F00087956A95E2F7817080830895813091F047
:10030000813028F08230C9F0833061F521C02BB3F1
:1003100081E090E002C0880F991F6A95E2F72827D4
:100320002BBB089528B381E090E002C0880F991F8D
:100330006A95E2F7282728BB089525B381E090E06D
:1003400002C0880F991F6A95E2F7282725BB0895F8
:1003500022B381E090E002C0880F991F6A95E2F70E
:10036000282722BB089585B394E0892785BB08958B
:10037000A79A0895AF9A0895AF98089585B38058C5
:1003800085BB08958B9A0895939A0895939808953C
:1003900082B398E0892782BB089582E062E040E062
:1003A0000E94D400089582E062E041E00E94D400FF
:1003B000089582E062E041E00E944F0008951F929C
:1003C0000F920FB60F9211242F933F934F935F9389
:1003D0006F937F938F939F93AF93BF93EF93FF930D
:1003E0008091600090916100A0916200B0916300E3
:1003F0000196A11DB11D8093600090936100A093B0
:100400006200B093630020916500309166004091D6
:1004100067005091680082179307A407B50769F435
:100420008091640082BF109260001092610010926F
:100430006200109263000E94B301FF91EF91BF919F
:10044000AF919F918F917F916F915F914F913F916C
:100450002F910F900FBE0F901F9018950E94D901F9
:100460000E943B0264EF71E080E090E00E94550240
:100470000E944702FFCF83B783BF89B7826089BFDD
:100480008FB780688FBF83B7886083BF089583B7B5
:10049000856083BF089583B78E7F83BF83B78D7FC9
:1004A00083BF83B78B7F83BF08952091640022BFF1
:1004B00028EE33E040E050E00E947F0226E096956F
:1004C0008795779567952A95D1F761506CBF92B75C
:1004D0008CB7981799F48091650090916600A0916F
:1004E0006700B09168000196A11DB11D8093650061
:1004F00090936600A0936700B09368000895629F90
:10050000D001739FF001829FE00DF11D649FE00D0B
:10051000F11D929FF00D839FF00D749FF00D659F6C
:10052000F00D9927729FB00DE11DF91F639FB00D6B
:10053000E11DF91FBD01CF0111240895F894FFCFEB
:00000001FF
