:100000000C942A000C9434000C9434000C943400AA
:100010000C9434000C9434000C9434000C94340090
:100020000C9434000C9434000C9434000C94340080
:100030000C9434000C9434000C9434000C94340070
:100040000C9434000C9434000C9434000C94340060
:100050000C94340011241FBECFE5D8E0DEBFCDBF25
:100060000E943E030C944A030C940000813049F036
:10007000813028F0823039F0833041F406C06ABB09
:10008000089567BB089564BB089561BB0895442338
:10009000C9F1413009F06EC0813099F0813030F003
:1000A0008230D1F0833009F065C021C02AB381E0ED
:1000B00090E002C0880F991F6A95E2F7282B2ABBAF
:1000C000089527B381E090E002C0880F991F6A95D8
:1000D000E2F7282B27BB089524B381E090E002C00B
:1000E000880F991F6A95E2F7282B24BB089521B346
:1000F00081E090E002C0880F991F6A95E2F7282BF3
:1001000021BB0895813099F0813028F08230D9F0F8
:10011000833081F524C02AB381E090E002C0880FCB
:10012000991F6A95E2F7809582238ABB089527B3C9
:1001300081E090E002C0880F991F6A95E2F78095F0
:10014000822387BB089524B381E090E002C0880F2A
:10015000991F6A95E2F78095822384BB089521B3A5
:1001600081E090E002C0880F991F6A95E2F78095C0
:10017000822381BB0895813049F0813028F082309C
:1001800039F0833041F406C06BBB089567BB089516
:1001900064BB089561BB08954423C9F1413009F05F
:1001A0006EC0813099F0813030F08230D1F08330F0
:1001B00009F065C021C02BB381E090E002C0880F38
:1001C000991F6A95E2F7282B2BBB089528B381E08D
:1001D00090E002C0880F991F6A95E2F7282B28BB90
:1001E000089525B381E090E002C0880F991F6A95B9
:1001F000E2F7282B25BB089522B381E090E002C0EE
:10020000880F991F6A95E2F7282B22BB0895813049
:1002100099F0813028F08230D9F0833081F524C004
:100220002BB381E090E002C0880F991F6A95E2F736
:10023000809582238BBB089528B381E090E002C0B3
:10024000880F991F6A95E2F78095822388BB0895ED
:1002500025B381E090E002C0880F991F6A95E2F70C
:100260008095822385BB089522B381E090E002C08F
:10027000880F991F6A95E2F78095822382BB0895C3
:10028000FB01813049F0813028F0823039F0833031
:1002900051F407C089B303C086B301C083B3808320
:1002A000089580B380830895FA01813049F0813048
:1002B00028F0823039F08330C1F40EC089B303C016
:1002C00086B301C083B390E002C0959587956A9587
:1002D000E2F781708083089580B390E002C0959525
:1002E00087956A95E2F7817080830895813091F057
:1002F000813028F08230C9F0833061F521C02BB302
:1003000081E090E002C0880F991F6A95E2F72827E4
:100310002BBB089528B381E090E002C0880F991F9D
:100320006A95E2F7282728BB089525B381E090E07D
:1003300002C0880F991F6A95E2F7282725BB089508
:1003400022B381E090E002C0880F991F6A95E2F71E
:10035000282722BB08951F93182F0E94DD010E94B9
:10036000EB0180E50E940D02812F0E940D020E9488
:10037000FC0180E50E940D02812F0E941D020E9457
:100380003D02182F0E944C02812F1F9108950F9358
:100390001F93182F062F0E94DD010E94EB0180E5BC
:1003A0000E940D02812F0E940D02802F0E942E02BA
:1003B0000E944C021F910F9108958CE080B908981B
:1003C000099886B7846086BF089582E082B986B7AF
:1003D000846086BF089586B7806286BF86B78460D2
:1003E00086BF86B7806886BF06B607FEFDCF81B19F
:1003F000887F8830E1F3089586B7806286BF86B72C
:10040000846086BF86B7806886BF06B607FEFDCFCC
:1004100081B1887F8031E1F30895880F83B986B771
:10042000846086BF86B7806886BF06B607FEFDCFAC
:1004300081B1887F8831E1F30895880F816083B9A5
:1004400086B7846086BF86B7806886BF06B607FE1B
:10045000FDCF81B1887F8034E1F3089583B986B7F9
:10046000846086BF86B7806886BF06B607FEFDCF6C
:1004700081B1887F8832E1F3089586B7846086BFB2
:1004800086B7806886BF06B607FEFDCF81B1887F3C
:100490008835E1F383B1089586B7806186BF86B75A
:1004A000846086BF86B7806886BF06B607FEFDCF2C
:1004B00008951F93182F81E061E041E00E94CC0075
:1004C00081E063E040E00E94CC0081E062E040E037
:1004D0000E94CC00812F807F8BBB81E063E041E0F4
:1004E0000E94CC008EEE92E00197F1F781E063E08C
:1004F00040E00E94CC001295107F1BBB81E063E0BE
:1005000041E00E94CC0088EA91E60197F1F781E092
:1005100063E040E00E94CC0082EE94E00197F1F7A6
:100520001F9108951F93CF93DF93EC0110E003C058
:100530000E9459021F5FFE01E10FF11D8081882397
:10054000B9F7DF91CF911F9108951F93182F81E084
:1005500061E040E00E94CC0081E063E040E00E9466
:10056000CC0081E062E040E00E94CC008BB3912F90
:10057000907F8F70982B9BBB81E063E041E00E94ED
:10058000CC008EEE92E00197F1F781E063E040E06D
:100590000E94CC008BB31295107F8F70812B8BBB88
:1005A00081E063E041E00E94CC008AEF90E0019797
:1005B000F1F781E063E040E00E94CC0082EE94E03D
:1005C0000197F1F71F91089581E00E94A502089517
:1005D000DF93CF9300D0CDB7DEB790E8998390EC4E
:1005E0009A83FE01E80FF11D8181860F0E94A5020A
:1005F0000F900F90CF91DF91089581E061E041E08D
:100600000E94470081E062E041E00E94470081E0F3
:1006100063E041E00E94470080E064E041E00E9426
:10062000470080E065E041E00E94470080E066E02E
:1006300041E00E94470080E067E041E00E944700FF
:1006400088EA91E60197F1F783E30E94A50282E32D
:100650000E94A50288E20E94A5028CE00E94A502E9
:1006600081E00E94A50286E00E94A50282E00E942D
:10067000A50282EE94E00197F1F708950E94FD0231
:1006800080E565E10E94C70180E50E94AB010E9400
:080690005902FFCFF894FFCFDF
:00000001FF
