:100000000C942A000C9434000C9434000C943400AA
:100010000C9434000C9434000C9434000C94340090
:100020000C9434000C9434000C9434000C94340080
:100030000C9434000C9434000C9434000C94340070
:100040000C9434000C9434000C9434000C94340060
:100050000C94340011241FBECFE5D8E0DEBFCDBF25
:100060000E940E030C9473030C9400003E9A3F9878
:10007000389A3D98359A309A319A329A3398379A0D
:100080000895FC01369A349BFECF118210820895A8
:10009000813049F0813028F0823039F0833041F4EA
:1000A00006C06ABB089567BB089564BB089561BB31
:1000B00008954423C9F1413009F06EC0813099F0B0
:1000C000813030F08230D1F0833009F065C021C03A
:1000D0002AB381E090E002C0880F991F6A95E2F789
:1000E000282B2ABB089527B381E090E002C0880F37
:1000F000991F6A95E2F7282B27BB089524B381E066
:1001000090E002C0880F991F6A95E2F7282B24BB64
:10011000089521B381E090E002C0880F991F6A958D
:10012000E2F7282B21BB0895813099F0813028F027
:100130008230D9F0833081F524C02AB381E090E089
:1001400002C0880F991F6A95E2F7809582238ABBC7
:10015000089527B381E090E002C0880F991F6A9547
:10016000E2F78095822387BB089524B381E090E075
:1001700002C0880F991F6A95E2F78095822384BB9D
:10018000089521B381E090E002C0880F991F6A951D
:10019000E2F78095822381BB0895813049F0813058
:1001A00028F0823039F0833041F406C06BBB0895EB
:1001B00067BB089564BB089561BB08954423C9F1EA
:1001C000413009F06EC0813099F0813030F08230DA
:1001D000D1F0833009F065C021C02BB381E090E0FD
:1001E00002C0880F991F6A95E2F7282B2BBB089550
:1001F00028B381E090E002C0880F991F6A95E2F76A
:10020000282B28BB089525B381E090E002C0880F19
:10021000991F6A95E2F7282B25BB089522B381E048
:1002200090E002C0880F991F6A95E2F7282B22BB45
:100230000895813099F0813028F08230D9F08330F0
:1002400081F524C02BB381E090E002C0880F991F94
:100250006A95E2F7809582238BBB089528B381E0ED
:1002600090E002C0880F991F6A95E2F7809582237B
:1002700088BB089525B381E090E002C0880F991FE4
:100280006A95E2F78095822385BB089522B381E0C9
:1002900090E002C0880F991F6A95E2F7809582234B
:1002A00082BB0895FB01813049F0813028F0823013
:1002B00039F0833051F407C089B303C086B301C05D
:1002C00083B38083089580B380830895FA018130D9
:1002D00049F0813028F0823039F08330C1F40EC00B
:1002E00089B303C086B301C083B390E002C0959583
:1002F00087956A95E2F781708083089580B390E0D6
:1003000002C0959587956A95E2F78170808308957C
:10031000813091F0813028F08230C9F0833061F56E
:1003200021C02BB381E090E002C0880F991F6A952D
:10033000E2F728272BBB089528B381E090E002C0A4
:10034000880F991F6A95E2F7282728BB089525B3DF
:1003500081E090E002C0880F991F6A95E2F7282794
:1003600025BB089522B381E090E002C0880F991F59
:100370006A95E2F7282722BB08951F93182F81E082
:1003800061E041E00E94DE0081E063E040E00E9425
:10039000DE0081E062E040E00E94DE00812F807F8D
:1003A0008BBB81E063E041E00E94DE0080EE9EE2D4
:1003B0000197F1F781E063E040E00E94DE001295D2
:1003C000107F1BBB81E063E041E00E94DE0088EE0D
:1003D00093E020E931E0F9013197F1F70197D9F77E
:1003E00081E063E040E00E94DE0080E49FE101974D
:1003F000F1F71F9108959F92AF92BF92CF92DF9233
:10040000EF92FF920F931F935B016C0197FF0BC05C
:100410008DE20E94BD01D094C094B094A094A11C20
:10042000B11CC11CD11CC601B501992493941AE0DA
:100430000DC02AE030E040E050E00E943603C901E0
:10044000DA01BC01CD01919E902C1124611571053A
:100450008105910571F71EC0892D6AE00E942A036B
:10046000982EE82EFF2400E010E0C601B501A80197
:1004700097010E943603822F805D0E94BD01C60154
:10048000B501A80197010E943603AC01CB01DA0146
:100490005C016D0181E08915F8F21F910F91FF90C9
:1004A000EF90DF90CF90BF90AF909F9008951F93F3
:1004B000CF93DF93EC0110E003C00E94BD011F5FEA
:1004C000FE01E10FF11D80818823B9F7DF91CF9103
:1004D0001F9108951F93182F81E061E040E00E9472
:1004E000DE0081E063E040E00E94DE0081E062E047
:1004F00040E00E94DE008BB3912F907F8F70982B8D
:100500009BBB81E063E041E00E94DE0080EE9EE262
:100510000197F1F781E063E040E00E94DE008BB3D9
:100520001295107F8F70812B8BBB81E063E041E0DF
:100530000E94DE0080EA9FE00197F1F781E063E02E
:1005400040E00E94DE0080E29EE40197F1F71F91F7
:10055000089581E00E946A020895DF93CF9300D04E
:10056000CDB7DEB790E8998390EC9A83FE01E80F4F
:10057000F11D8181860F0E946A020F900F90CF912A
:10058000DF91089581E061E041E00E94590081E03F
:1005900062E041E00E94590081E063E041E00E9496
:1005A000590080E064E041E00E94590080E065E08D
:1005B00041E00E94590080E066E041E00E9459005D
:1005C00080E067E041E00E94590088EE93E020E976
:1005D00031E0F9013197F1F70197D9F783E30E94F0
:1005E0006A0282E30E946A0288E20E946A028CE048
:1005F0000E946A0281E00E946A0286E00E946A020A
:1006000082E00E946A0280E29EE40197F1F7089579
:100610000E94410008950E94360008950F931F9391
:10062000DF93CF9300D0CDB7DEB71A8219820E9434
:10063000C2020E940B038E010F5F1F4FC8010E9470
:1006400008030E94A90269817A8180E090E00E94FB
:10065000FB01F4CF991B79E004C0991F961708F0AD
:10066000961B881F7A95C9F78095089597FB092EE8
:1006700005260ED057FD04D014D00AD0001C38F443
:1006800050954095309521953F4F4F4F5F4F0895BE
:10069000F6F790958095709561957F4F8F4F9F4F9E
:1006A0000895A1E21A2EAA1BBB1BFD010DC0AA1FB3
:1006B000BB1FEE1FFF1FA217B307E407F50720F0CB
:1006C000A21BB30BE40BF50B661F771F881F991F46
:1006D0001A9469F760957095809590959B01AC018F
:0A06E000BD01CF010895F894FFCF8B
:00000001FF
