:100000000C942A000C943F000C943F000C943F0089
:100010000C943F000C943F000C943F000C943F0064
:100020000C943F000C943F000C943F000C943F0054
:100030000C943F000C943F000C943F000C943F0044
:100040000C943F000C943F000C943F000C943F0034
:100050000C943F0011241FBECFE5D8E0DEBFCDBF1A
:1000600010E0A0E6B0E0E0ECF5E002C005900D92F3
:10007000A836B107D9F70E94D5020C94DE020C9481
:100080000000813049F0813028F0823039F083302F
:1000900041F406C06ABB089567BB089564BB089528
:1000A00061BB08954423C9F1413009F06EC081302D
:1000B00099F0813030F08230D1F0833009F065C0A2
:1000C00021C02AB381E090E002C0880F991F6A9591
:1000D000E2F7282B2ABB089527B381E090E002C005
:1000E000880F991F6A95E2F7282B27BB089524B340
:1000F00081E090E002C0880F991F6A95E2F7282BF3
:1001000024BB089521B381E090E002C0880F991FBD
:100110006A95E2F7282B21BB0895813099F0813050
:1001200028F08230D9F0833081F524C02AB381E0F1
:1001300090E002C0880F991F6A95E2F780958223AC
:100140008ABB089527B381E090E002C0880F991F11
:100150006A95E2F78095822387BB089524B381E0F6
:1001600090E002C0880F991F6A95E2F7809582237C
:1001700084BB089521B381E090E002C0880F991FED
:100180006A95E2F78095822381BB0895813049F01A
:10019000813028F0823039F0833041F406C06BBBE7
:1001A000089567BB089564BB089561BB0895442317
:1001B000C9F1413009F06EC0813099F0813030F0E2
:1001C0008230D1F0833009F065C021C02BB381E0CB
:1001D00090E002C0880F991F6A95E2F7282B2BBB8D
:1001E000089528B381E090E002C0880F991F6A95B6
:1001F000E2F7282B28BB089525B381E090E002C0E8
:10020000880F991F6A95E2F7282B25BB089522B322
:1002100081E090E002C0880F991F6A95E2F7282BD1
:1002200022BB0895813099F0813028F08230D9F0D6
:10023000833081F524C02BB381E090E002C0880FA9
:10024000991F6A95E2F7809582238BBB089528B3A6
:1002500081E090E002C0880F991F6A95E2F78095CF
:10026000822388BB089525B381E090E002C0880F07
:10027000991F6A95E2F78095822385BB089522B382
:1002800081E090E002C0880F991F6A95E2F780959F
:10029000822382BB0895FB01813049F0813028F030
:1002A000823039F0833051F407C089B303C086B37C
:1002B00001C083B38083089580B380830895FA01D9
:1002C000813049F0813028F0823039F08330C1F438
:1002D0000EC089B303C086B301C083B390E002C0EF
:1002E000959587956A95E2F781708083089580B32C
:1002F00090E002C0959587956A95E2F781708083BA
:100300000895813091F0813028F08230C9F0833037
:1003100061F521C02BB381E090E002C0880F991FE6
:100320006A95E2F728272BBB089528B381E090E077
:1003300002C0880F991F6A95E2F7282728BB089505
:1003400025B381E090E002C0880F991F6A95E2F71B
:10035000282725BB089522B381E090E002C0880FD2
:10036000991F6A95E2F7282722BB08951F93182F3B
:1003700081E061E041E00E94D70081E063E040E07D
:100380000E94D70081E062E040E00E94D700812F08
:10039000807F8BBB81E063E041E00E94D7008EEE5E
:1003A00092E00197F1F781E063E040E00E94D7001E
:1003B0001295107F1BBB81E063E041E00E94D700F3
:1003C00088EA91E60197F1F781E063E040E00E945E
:1003D000D70082EE94E00197F1F71F9108951F93E3
:1003E000CF93DF93EC0110E003C00E94B6011F5FC2
:1003F000FE01E10FF11D80818823B9F7DF91CF91D4
:100400001F9108951F93182F81E061E040E00E9442
:10041000D70081E063E040E00E94D70081E062E025
:1004200040E00E94D7008BB3912F907F8F70982B64
:100430009BBB81E063E041E00E94D7008EEE92E03A
:100440000197F1F781E063E040E00E94D7008BB3B1
:100450001295107F8F70812B8BBB81E063E041E0B0
:100460000E94D7008AEF90E00197F1F781E063E006
:1004700040E00E94D70082EE94E00197F1F71F91CF
:10048000089581E00E9402020895DF93CF9300D087
:10049000CDB7DEB790E8998390EC9A83FE01E80F20
:1004A000F11D8181860F0E9402020F900F90CF9163
:1004B000DF91089581E061E041E00E94520081E017
:1004C00062E041E00E94520081E063E041E00E946E
:1004D000520080E064E041E00E94520080E065E06C
:1004E00041E00E94520080E066E041E00E9452003C
:1004F00080E067E041E00E94520088EA91E60197BF
:10050000F1F783E30E94020282E30E94020288E282
:100510000E9402028CE00E94020281E00E9402021C
:1005200086E00E94020282E00E94020282EE94E0D3
:100530000197F1F708955D9BFECF8CB9089520E0F7
:1005400004C05D9BFECFECB92F5FFC01E20FF11DF3
:10055000E081EE23B1F708955F9BFECF8CB1089543
:100560008FB780688FBF579A089580E090E09C0114
:10057000F90104C05F9BFECF8CB181938CB18823BD
:10058000C9F7089583E060E040E00E94520083E0F4
:1005900061E041E00E9452008AB188618AB980B569
:1005A000856880BD87E689B908950E94C20280E609
:1005B00090E00E949F020E945A02FFCFF894FFCF62
:0805C00048454C4C4F2100009E
:00000001FF
